:100000000C9434000C9451000C9451000C94510049
:100010000C9451000C9451000C9451000C9451001C
:100020000C9451000C9451000C9451000C9453000A
:100030000C9451000C9451000C9451000C945100FC
:100040000C9451000C9451000C9476060C949F066D
:100050000C9451000C9451000C9451000C945100DC
:100060000C9451000C94510011241FBECFEFD8E026
:10007000DEBFCDBF11E0A0E0B1E0E8EEFDE002C0E0
:1000800005900D92A434B107D9F712E0A4E4B1E0D1
:1000900001C01D92A532B107E1F70E9472020C94D3
:1000A000F2060C9400001F920F920FB60F921124CB
:1000B0008F938091D301882329F08091D4018F5FA1
:1000C0008093D4018091D901882329F08091DA01AD
:1000D0008F5F8093DA018091DF01882329F080917E
:1000E000E0018F5F8093E0018091E501882329F092
:1000F0008091E6018F5F8093E6018091EB01882378
:1001000029F08091EC018F5F8093EC018091F101E7
:10011000882329F08091F2018F5F8093F201809112
:10012000F701882329F08091F8018F5F8093F8010F
:100130008091FD01882329F08091FE018F5F8093DB
:10014000FE0180910302882329F0809104028F5FD1
:100150008093040280910902882329F080910A0289
:100160008F5F80930A028091440185B98091450197
:100170008BB98F910F900FBE0F901F901895089517
:10018000CF93DF93782F6A3508F05CC0209102018D
:10019000309103011216130694F49091CF01791750
:1001A00089F0E5EDF1E040E050E004C08081369652
:1001B000871751F04F5F5F4F42175307BCF3DF9132
:1001C000CF91089540E050E0BA01660F771FFB0120
:1001D000E40FF51FEE0FFF1FE153FE4FA181B28127
:1001E0002C9181E090E0038002C0880F991F0A944F
:1001F000E2F7282B2C938091000190E0841795075B
:1002000009F478C081E0FB01E40FF51FEE0FFF1F3A
:10021000E153FE4F8483158281819281853291055D
:1002200009F46AC08B9759F681E090E0038002C020
:10023000880F991F0A94E2F720914501282B2093FB
:100240004501BDCF20910201309103011216130622
:100250000CF0B5CF9091CF01993209F46BC0E5ED68
:10026000F1E040E050E04F5F5F4F421753070CF062
:1002700096CF808136968932B1F7EA01CC0FDD1F27
:10028000FE01E40FF51FEE0FFF1FE153FE4FA181AA
:10029000B2812C9181E090E0038002C0880F991F09
:1002A0000A94E2F7282B2C938091000190E04817E4
:1002B000590781F181E0FE01E40FF51FEE0FFF1FEA
:1002C000E153FE4F848315828181928185329105AD
:1002D00019F18B9709F05ACF81E090E0038002C0BA
:1002E000880F991F0A94E2F720914501282B20934B
:1002F00045014CCF82E087CF81E090E0038002C0CF
:10030000880F991F0A94E2F720914401282B20932B
:10031000440155CF82E0CFCF81E090E0038002C05E
:10032000880F991F0A94E2F720914401282B20930B
:1003300044012CCF40E050E0A0CF0F931F93CF9308
:10034000DF938091020190910301181619068CF435
:100350003091D401393090F4EAEDF1E0C0E0D0E022
:1003600004C030813696393058F42196C817D90721
:10037000C4F3DF91CF911F910F910895C0E0D0E0B9
:100380008E01000F111FF801EC0FFD1FEE0FFF1F74
:10039000E153FE4F818192818532910509F476C047
:1003A0008B9709F482C0F801EC0FFD1FEE0FFF1FC1
:1003B000E153FE4F8481843009F45CC0853038F10C
:1003C000863009F457C0863088F1873041F1883093
:1003D00081F68091010190E0FC01EE0FFF1FE80F14
:1003E000F91FEE0FFF1FE153FE4F808160E00E9476
:1003F000C000F801EC0FFD1FEE0FFF1FE153FE4F91
:1004000014821582DF91CF911F910F910895823050
:1004100089F1833058F4813009F0ABCFEACF34361C
:1004200008F4A7CF158288E08483A3CF343608F47C
:10043000A0CFF801EC0FFD1FEE0FFF1FE153FE4FA1
:10044000158284818F5F84838181928185329105B9
:10045000D9F18B9709F08DCF81E090E0038002C045
:10046000880F991F0A94E2F720914501282B2093C9
:1004700045017FCFF801EC0FFD1FEE0FFF1FE15389
:10048000FE4F158284818F5F848373CF81E090E07B
:10049000038002C0880F991F0A94E2F7809520918B
:1004A00044012823209344017ECF81E090E0038023
:1004B00002C0880F991F0A94E2F7809520914501A8
:1004C0002823209345016FCF81E090E0038002C094
:1004D000880F991F0A94E2F720914401282B20935A
:1004E000440147CFBF92CF92DF92EF92FF920F93DA
:1004F0001F93DF93CF93CDB7DEB7EC970FB6F89489
:10050000DEBF0FBECDBF9E012F5F3F4FD901E7E099
:10051000F1E08CE301900D928150E1F7AFECB1E096
:10052000F9018CE301900D928150E1F762E17AE7E5
:1005300080E090E00E941F0680EC90E00E94F503AE
:100540008FEB90E00E9418048091C100877F809318
:10055000C100F894809181008A608093810010929C
:10056000890088EC8093880080916F00826080937E
:100570006F0078948FEF84B987B98EEF8AB915B878
:1005800018B88CEF8BB940E050E000910201109157
:10059000030121E0C22ED12C98E0B92E0FC0BA0180
:1005A000660F771FFB01E40FF51FEE0FFF1FE153EE
:1005B000FE4F3581393080F44F5F5F4F4017510750
:1005C00074F30E943A06882391F540E050E00091D0
:1005D000020110910301F2CF818192818532910550
:1005E00009F48EC08B9709F499C0FB01E40FF51F45
:1005F000EE0FFF1FE153FE4F8481843009F474C075
:100600008530C0F4823009F46FC0833008F048C0F0
:100610008130B9F6FB01E40FF51FEE0FFF1FE15328
:10062000FE4F148215820E943A06882371F20E94BE
:10063000FE04CBCF863009F457C0863088F187306E
:1006400049F1883009F0BDCF8091010190E0FC01B3
:10065000EE0FFF1FE80FF91FEE0FFF1FE153FE4FD4
:10066000E08110161106B4F68091CF01E81709F465
:1006700063C0A5EDB1E0EE24FF2405C08C91169671
:10068000E81709F45BC00894E11CF11CE016F106C0
:10069000ACF3C0CF343608F494CF1582B48291CF36
:1006A000343608F48ECFFB01E40FF51FEE0FFF1F69
:1006B000E153FE4F158284818F5F84838181928113
:1006C0008532910509F484C08B9709F07ACF9601A1
:1006D000038002C0220F331F0A94E2F78091450184
:1006E000822B809345016DCFFB01E40FF51FEE0FC8
:1006F000FF1FE153FE4F158284818F5F848361CF9A
:10070000C601038002C0880F991F0A94E2F7809502
:100710002091440128232093440167CFC601038020
:1007200002C0880F991F0A94E2F780952091450135
:1007300028232093450159CFEE24FF248701000F81
:10074000111FF801EE0DFF1DEE0FFF1FE153FE4FCD
:10075000A181B2812C91C601038002C0880F991F2C
:100760000A94E2F7282B2C938091000190E0E81680
:10077000F906F9F081E0F801EE0DFF1DEE0FFF1F05
:10078000E153FE4F848315828181928185329105E8
:1007900091F08B9709F03ECF9601038002C0220FA3
:1007A000331F0A94E2F780914501822B8093450123
:1007B00031CF82E0E0CF9601038002C0220F331FC9
:1007C0000A94E2F780914401822B8093440122CF66
:1007D0009601038002C0220F331F0A94E2F7809132
:1007E0004401822B80934401ECCE90931C028093B1
:1007F0001B02089590931A02809319020895909312
:100800001E0280931D020895909316028093150294
:1008100008959093180280931702089590932002F0
:1008200080931F02089590932402809323020895D9
:100830009093220280932102089590930C0280935A
:100840000B02089590931402809313020895FA0105
:1008500090E0807F9070803B910509F458C0813B07
:100860009105BCF0803D910559F1803E910559F10B
:10087000803C910531F5662321F120910B023091E6
:100880000C0221153105E1F08081F901099560E044
:1008900018C08039910571F1803A910579F080385E
:1008A000910579F4623068F08081E0911902F0914D
:1008B0001A02309729F0099560E003C0623008F011
:1008C00060E0862F08956230E0F320814181E0915D
:1008D0001302F0911402309799F3842F90E09695CB
:1008E000982F88279795879530E0822B932B099531
:1008F00060E0E7CF623028F3808161816623A9F24E
:10090000E0911B02F0911C02309759F4D9CF62306C
:10091000C0F280816181E0912102F0912202309742
:1009200079F2099560E0CDCFFA01803FE9F0823F8E
:1009300019F060E0862F08956230E0F32081418154
:10094000E0911D02F0911E02309799F3842F90E000
:100950009695982F88279795879530E0822B932B33
:10096000099560E0862F089561E0862F089590E054
:10097000807F9070803A910591F0813A91054CF01A
:10098000803B910561F0803E910549F060E0862F43
:1009900008958038910519F080399105B9F76230D2
:1009A000A8F7862F08958A3FC9F08B3F28F08B3F28
:1009B000E9F08C3F59F00895883FE9F7E09115027E
:1009C000F09116023097B9F309950895E09123024A
:1009D000F0912402309779F309950895E091170278
:1009E000F0911802309739F309950895E0911F02AC
:1009F000F09120023097F9F2099508950E943D0682
:100A0000883F98F587FD41C060914801623008F445
:100A100056C020910501203F08F041C0809104019B
:100A20008F3F09F447C0422F50E09A012F70307079
:100A300090E02817390709F44DC0862F9A01207FCE
:100A40003070203A310509F470C0213A31050CF4B8
:100A500065C0203B310509F468C0203E310509F42A
:100A600064C080E08093480108958A3F09F461C022
:100A70008B3F08F066C0883FB9F7E0911502F0910E
:100A80001602309789F30995089580930501109215
:100A9000480160E020910501203F08F4BFCF862F78
:100AA000203F09F47CC0223F09F47BC080E08093A2
:100AB00048010895822F8F7080930401B4CFE62FF0
:100AC000F0E0EA5BFE4F8083862F8F5F80934801C2
:100AD000682F9FCF862F9A01207F3070203B3105F1
:100AE00009F49BC0213B31050CF040C02039310591
:100AF00009F471C0203A310509F49DC02038310550
:100B0000B1F66230A0F280914601E0911902F091B5
:100B10001A02309759F2099580E0C9CF2038310583
:100B200021F02039310509F09CCF623008F099CFCF
:100B300099CFE0911702F0911802309709F0A3CFF6
:100B400093CF8B3F59F08C3F09F08ECFE091230279
:100B5000F0912402309709F096CF86CFE0911F02E2
:100B6000F0912002309709F08ECF7ECF203D3105E5
:100B700009F49CCF203E310509F441C0203C3105E9
:100B800009F095CF662309F492CFE0910B02F09122
:100B90000C02309709F48ACF80914601BCCF81E0E6
:100BA00086CF623008F483CF2091460180914701BF
:100BB000E0911D02F0911E02309709F477CF90E08A
:100BC0009695982F88279795879530E0822B932BC1
:100BD000099580E06CCF623008F469CF80914601BE
:100BE00060914701662309F490CFE0911B02F091D8
:100BF0001C02309709F45ACF099580E058CF623033
:100C000008F455CF2091460180914701E0911302ED
:100C1000F0911402309799F649CF623008F447CF2B
:100C20008091460160914701E0912102F0912202FA
:100C3000309711F73BCF623008F038CF38CF9B01A7
:100C4000AC0110928D0110928C0110928E011092C5
:100C50004A011092490110924B0160E472E48FE066
:100C600090E00E94D00621502093C40088E9809330
:100C7000C100089580918E01089590918D01809119
:100C80008E018823E1F3E92FF0E0E457FE4F238142
:100C9000E92FEF5FF89480918E01815080938E014F
:100CA0007894E03408F0E0E0E0938D01822F08951D
:100CB000282F9091490180914B018034E0F7E92F72
:100CC000F0E0E75BFE4F2383E92FEF5FF89480911C
:100CD0004B018F5F80934B0188EB8093C100789428
:100CE000E03408F0E0E0E093490108951F920F928C
:100CF0000FB60F9211248F939F93EF93FF939091D0
:100D0000C60080918E01803478F48F5F80938E01CD
:100D100080918C01E82FF0E0E457FE4F93838F5FC2
:100D2000803458F480938C01FF91EF919F918F91C3
:100D30000F900FBE0F901F90189580E0F3CF1F9279
:100D40000F920FB60F9211242F938F939F93EF93CF
:100D5000FF9380914B018823F9F0282F2150209395
:100D60004B0180914A01E82FF0E0E75BFE4F938151
:100D70009093C6008F5F803408F080E080934A0132
:100D8000222351F0FF91EF919F918F912F910F901E
:100D90000FBE0F901F90189588E98093C100F2CF85
:100DA000A1E21A2EAA1BBB1BFD010DC0AA1FBB1F6F
:100DB000EE1FFF1FA217B307E407F50720F0A21BE1
:100DC000B30BE40BF50B661F771F881F991F1A944E
:100DD00069F760957095809590959B01AC01BD0178
:080DE000CF010895F894FFCF44
:100DE80005080A00FF905A23250001000024250069
:100DF800020000252B000700002625000000002720
:100E08002B00060000282500040000292500050005
:100E1800002A2B000500002B25000300002C2500CC
:040E280004000000C2
:00000001FF
